:060000000A128A11FC2F18
:100BDA00880189010317880189010800F100710859
:100BEA00F000F00DF00D831203131F087006C339CD
:100BFA0070069F0008000313051403170814003039
:100C0A000A128A11F3250A128A111F083F398038FD
:100C1A009F0083169F179F121F1283121F14023000
:100C2A00F4000430F300BA30F200F20B1A2EF30B80
:100C3A001A2EF40B1A2E000008000030FC000030B7
:100C4A00FB000030FA000030F900701C402E7408D6
:100C5A00F907750803110318013E031DFA07760800
:100C6A0003110318013E031DFB077708031103183C
:100C7A00013E031DFC070130F8000310F40DF50DC9
:100C8A00F60DF70DF80B422E01300310F30CF20C9F
:100C9A00F10CF00CFF3E031D4A2E73087204710416
:100CAA007004031D2A2E7C08F3007B08F2007A08E0
:100CBA00F1007908F00008000030FC000030FB0069
:100CCA000030FA000030F9007308720471047004ED
:100CDA000319B62EFD01FD0AF31B812E0130F8001F
:100CEA000310F00DF10DF20DF30DF80B752E013016
:100CFA00FF007F08FD07712E0130F8000310F90D7F
:100D0A00FA0DFB0DFC0DF80B832E73087702031DF9
:100D1A00982E72087602031D982E71087502031D1B
:100D2A00982E70087402031CA92E7008F402710828
:100D3A00031C710FF5027208031C720FF602730886
:100D4A00031C730FF702791401300310F30CF20C31
:100D5A00F10CF00CFF3E031DAA2E0130FD02031D0B
:100D6A00812E7C08F3007B08F2007A08F1007908EA
:100D7A00F0000800A201A3019F1483169F1FDF2E13
:100D8A001E08F200F30183121E08F400F50174082C
:100D9A00F500F40100307405F60003307505F7001C
:100DAA0072087604F80073087704F9007808A0003E
:100DBA007908A10083169F1B082F1E08F20006302F
:100DCA000310F20CFF3E031DE52E72080339F300EF
:100DDA00F40183121E08F500F6010310F50DF60D55
:100DEA000310F50DF60DFC307505F7000330760596
:100DFA00F80073087704F90074087804FA0079088F
:100E0A00A0007A08A10001308312A2070318A30ADE
:100E1A000030A307E830220603300319230603191A
:100E2A00182F9F18C22E2108F1002008F000080090
:100E3A00703083168F040A128A11ED250A128A115C
:100E4A000A128A1100260A128A11831203138901CF
:100E5A008801632F0330FF007F08890409142708DB
:100E6A00031D462F2608031D462F2508031D462F5E
:100E7A0009302402031D412F0318462F831203133E
:100E8A008901FF308312031388007F30FF007F0837
:100E9A0088043F30FF007F0888041F30FF007F0866
:100EAA0088040F30FF007F0888040730FF007F089E
:100EBA0088040330FF007F08880408140A128A1184
:100ECA00BF260A128A117008A4007108A500003012
:100EDA00A51BFF30A600A7002708F3002608F2008A
:100EEA002508F1002408F0000030F7000030F60071
:100EFA000030F5006430F4000A128A1122260A1220
:100F0A008A117308A7007208A6007108A500700864
:100F1A00A4000030F3000030F2000330F100FF308B
:100F2A00F0002708F7002608F6002508F50024082F
:100F3A00F4000A128A1161260A128A117308A7009C
:100F4A007208A6007108A5007008A4000030F3001A
:100F5A000030F2000030F1000A30F0002708F700F4
:100F6A002608F6002508F5002408F4000A128A115A
:100F7A0061260A128A117308A7007208A60071086E
:100F8A00A5007008A400890188012708003A0319FE
:100F9A00F42F632F2508003A0319D42F632F24084E
:100FAA00013A0319622F033A03195E2F013A031912
:100FBA005A2F073A0319562F013A0319522F033AA7
:100FCA0003194E2F013A03194A2F0F3A0319342FE6
:100FDA00013A0319332F033A03192F2F632F2608D7
:100FEA00003A0319CF2F632F0A128A1100288301AE
:060FFA000A128A111D2FEE
:04400E00D420FF3F7C
:00000001FF
