:100000000A128A11F02F00308A000408840A82073D
:10001000003401340034003400340A340034003435
:1000200000346434003400340034E83403340034E1
:1000300000341034273400340034A03486340134C2
:100040000034403442340F340034803496349834D1
:1000500000340034E134F53405340034CA349A34C1
:100060003B34203420342034003425346C34643460
:0200700000345A
:10079200880189010317880189010800F000831686
:1007A200981683120C1ED22B700899000800F100D3
:1007B2007108F000F00DF00D831203131F0870068C
:1007C200C33970069F000800831607138717181194
:1007D20003178715333003139900181283129817E1
:1007E2009030980008007E088A007F088200F42377
:1007F2000A128A118000840A04087D060319003453
:10080200FF0A0319FE0AF82B2034003400340034A6
:100812000034003400340034003400340034003436
:100822000034003400340034003400340034003426
:10083200F200720884000008F10071080A128A119D
:10084200CF230A128A110130FF007F08F2077208D3
:1008520084003B300006031908001A2CF1007108CD
:10086200F200700884000A128A1103200A128A1107
:10087200FF00720884007F088313800000080319B8
:1008820008000130FF007F08F2070130FF007F08F7
:10089200F007322C031305140317081400300A1250
:1008A2008A11D8230A128A111F083F3980389F0003
:1008B20083169F179F121F1283121F140230F40017
:1008C2000430F300BA30F200F20B652CF30B652C06
:1008D200F40B652C000008000030FC000030FB0027
:1008E2000030FA000030F900701C8B2C7408F907F4
:1008F200750803110318013E031DFA077608031158
:100902000318013E031DFB07770803110318013E7C
:10091200031DFC070130F8000310F40DF50DF60D70
:10092200F70DF80B8D2C01300310F30CF20CF10CC7
:10093200F00CFF3E031D952C7308720471047004C1
:10094200031D752C7C08F3007B08F2007A08F10085
:100952007908F00008002308220421042004031966
:10096200EF2CA901A90AA31BC42C0130A800031073
:10097200A00DA10DA20DA30DA80BB82C0130FF00F4
:100982007F08A907B42C23082702031DD22C2208B2
:100992002602031DD22C21082502031DD22C200879
:1009A2002402031CE22C2008A4022108031C210FAC
:1009B200A5022208031C220FA6022308031C230FF0
:1009C200A70201300310A30CA20CA10CA00CFF3E45
:1009D200031DE32C0130A902031DC42C2708A30028
:1009E2002608A2002508A1002408A0000800A201F0
:1009F200A3019F1483169F1F182D1E08F200F301F6
:100A020083121E08F400F5017408F500F4010030A9
:100A12007405F60003307505F70072087604F800D5
:100A220073087704F9007808A0007908A1008316FA
:100A32009F1B412D1E08F20006300310F20CFF3EF0
:100A4200031D1E2D72080339F300F40183121E08E0
:100A5200F500F6010310F50DF60D0310F50DF60D78
:100A6200FC307505F70003307605F800730877044B
:100A7200F90074087804FA007908A0007A08A10045
:100A820001308312A2070318A30A0030A307E8303B
:100A920022060330031923060319512D9F18FB2C3C
:100AA2002108F1002008F00008000030FC000030AE
:100AB200FB000030FA000030F90073087204710480
:100AC20070040319AB2DFD01FD0AF31B762D0130D5
:100AD200F8000310F00DF10DF20DF30DF80B6A2D75
:100AE2000130FF007F08FD07662D0130F80003107A
:100AF200F90DFA0DFB0DFC0DF80B782D730877023A
:100B0200031D8D2D72087602031D8D2D710875024D
:100B1200031D8D2D70087402031C9E2D7008F402B3
:100B22007108031C710FF5027208031C720FF602A2
:100B32007308031C730FF702791401300310F30CCE
:100B4200F20CF10CF00CFF3E031D9F2D0130FD0253
:100B5200031D762D7C08F3007B08F2007A08F10071
:100B62007908F0000800BE01BF01703083168F04BF
:100B72000A128A11C9230A128A110A128A114B24F3
:100B82000A128A1183120313890188010A128A1137
:100B9200E5230A128A11012E0330FF007F0889041F
:100BA20009144308031DE42D4208031DE42D4108E6
:100BB200031DE42D09304002031DDF2D0318E42D2F
:100BC200831203138901FF308312031388007F30DD
:100BD200FF007F0888043F30FF007F0888041F3031
:100BE200FF007F0888040F30FF007F088804073069
:100BF200FF007F0888040330FF007F088804081480
:100C02002930F00044300A128A112F240A128A1164
:100C12000A128A11F8240A128A117008C000710897
:100C2200C1000030C11BFF30C200C3004308F30003
:100C32004208F2004108F1004008F0000030F700DD
:100C42000030F6000030F5006430F4000A128A1118
:100C52006D240A128A117308C3007208C200710857
:100C6200C1007008C0000030F3000030F200033011
:100C7200F100FF30F0004308F7004208F600410897
:100C8200F5004008F4000A128A1156250A128A1148
:100C92007308C3007208C2007108C1007008C00066
:100CA2000030F3000030F2000030F1000A30F000B2
:100CB2004308F7004208F6004108F5004008F40036
:100CC2000A128A1156250A128A117308C300720881
:100CD200C2007108C1007008C0000130BE070318CD
:100CE200BF0A0030BF07E8303E06033003193F0653
:100CF200031D952E2D30AA004308AE004208AD0018
:100D02004108AC004008AB0044300A128A11C926DF
:100D12000A128A113B30D70044300A128A11192470
:100D22000A128A11BE01BF01890188014308003AF3
:100D32000319C12E012E4108003A0319A12E012EDA
:100D42004008013A0319002E033A0319FC2D013A17
:100D52000319F82D073A0319F42D013A0319F02D5E
:100D6200033A0319EC2D013A0319E82D0F3A03193E
:100D7200D22D013A0319D12D033A0319CD2D012E9B
:100D82004208003A03199C2E012E0A128A110028E9
:100D9200BC002B30B6000130AA07FF302A078400BE
:100DA2000A128A1103200A128A11BD003D08031992
:100DB200EB2F25303D060319E82E3C0884003D0840
:100DC200831380000130FF007F08BC07CC2EB701DF
:100DD200EB2E37160130AA07FF302A0784000A12C9
:100DE2008A1103200A128A11BD00003A0319EB2F5F
:100DF200643A0319032F0D3A0319032F053A031915
:100E0200EA2ECC2E371E152F3608840083130008D5
:100E1200B800840A0008B900840A0008BA00840AEB
:100E22000008BB000430272F360884008313000813
:100E3200AF00840A0008B0002F08B8003008B900DB
:100E42000030B91BFF30BA00BB000230FF007F0840
:100E5200B607BB1F3B2F0330FF007F08B704B8095A
:100E6200B909BA09BB09B80A0319B90A0319BA0AB6
:100E72000319BB0ABD01BD0A3D08AF0001300310D2
:100E8200AF0DFF3E031D402F03102F0D013E8400C6
:100E92000A128A1103200A128A11B0000A128A1158
:100EA20003200A128A11B1000A128A1103200A12BF
:100EB2008A11B2000A128A1103200A128A11B3009F
:100EC20033083B02031D6F2F32083A02031D6F2FB6
:100ED20031083902031D6F2F30083802031C792FA5
:100EE2000130FF007F08BD070A303D06031D3D2F7C
:100EF200370803390319862F3C0884002D308313E9
:100F020080000130FF007F08BC073D08AF00B00140
:100F12002F08B4003008B500FF30B4070318B50A33
:100F2200FF30B507340A0319350A0319CC2E0030F5
:100F3200A3000030A2000030A1000A30A000340853
:100F4200AF0001300310AF0DFF3E031DA32F0310AE
:100F52002F0D013E84000A128A1103200A128A11FF
:100F6200F0000A128A1103200A128A11F1000A12F1
:100F72008A1103200A128A11F2000A128A1103202E
:100F82000A128A11F3003B08F7003A08F600390802
:100F9200F5003808F4000A128A1156250A128A113D
:100FA2007308A7007208A6007108A5007008A400C3
:100FB2000A128A11AC240A128A112008303EBD009E
:100FC2003C0884003D08831380000130FF007F0845
:100FD200BC078D2F3C088400831380010800831313
:100FE2005830FD000430FE000530FF00443084001C
:0E0FF2000A128A11F82383010A128A11B42D03
:04400E00D420FF3F7C
:00000001FF
