:060000000A128A1110280B
:10000800FE00030EF9000408FA000A08FB007F0846
:10001800FC000A128A15FC280A128A111328831375
:10002800B730FD001730FE002D30FF00A0308400EF
:100038000A168A11FC260A128A1183179030840046
:10004800E0300A168A11B926E901EA01EB01EC0150
:10005800ED0183010A128A11742F8316C9005D30DD
:10006800BA0001308312DC07FF305C0784000A12F3
:100078008A1500200A128A118316CD004D0803192B
:10008800172D25304D0603194D28490884004D08C1
:10009800102DBB01BC0152283C1566280130831283
:1000A800DC07FF305C0784000A128A1500200A1258
:1000B8008A118316CD00003A0319172D663A0319E1
:1000C8005028352800303B058312E000073083169E
:1000D8003C058312E100600861040319082D06300D
:1000E8008316BD000030BE003A0884008313000860
:1000F800CA00840A0008CB00840A0008CC00033038
:10010800FF007F08BA074A088312A00083164B082D
:100118008312A10083164C088312A2000030A300AA
:100128000030A4000030A5000A128A15CF200A1258
:100138008A110318BF2883164A088312A000831661
:100148004B088312A10083164C088312A2000A16DA
:100158008A11B1260A128A1120088316CA0083124E
:1001680021088316CB00831222088316CC000330A3
:10017800BB040030BC048316C301C4014C084B0403
:100188004A040319A829CA3084008313000883127B
:10019800E000840A0008E100840A0008E200840AFA
:1001A8000008E3000F300310E30CE20CE10CE00C54
:1001B800FF3E031DD728FF306005E40000306105CD
:1001C800E5006408823E8316C3008312650803189D
:1001D800013EFF3E8316C400FF30C3070318C40A5C
:1001E800FF30C40703308312A0000030A10083163B
:1001F80044088312A300831643088312A2000A1638
:100208008A119C270A128A1121088316C4008312B6
:1002180020088316C3000A308312A6000030A70006
:10022800831644088312A900831643088312A80082
:100238000A128A15D3210A128A1127088316C400C4
:10024800831226088316C300C41F3029FF30C30752
:100258000318C40AFF30C4074303FF3A0A128A117D
:100268001C250A128A1140088316C500831241080A
:100278008316C600831242088316C7004A088312F1
:10028800B10083164B088312B20083164C08831200
:10029800B300831645088312B400831646088312F8
:1002A800B500831647088312B6000A128A150E2471
:1002B8000A128A1131088316C50083123208831680
:1002C800C600831233088316C70045088312A000AE
:1002D800831646088312A100831647088312A200DA
:1002E8000030A3008030A4003F30A5000A128A1510
:1002F800CF200A128A1103188829FF308316C307F2
:100308000318C40AFF30A729831645088312A000E2
:10031800831646088312A100831647088312A20099
:100328000030A3002030A4004130A5000A128A152D
:10033800CF200A128A11031CA82901308316C3078B
:100348000318C40A0030C40706300A128A15C126E9
:100358000A128A114008CA004108CB004208CC00A2
:1003680083164A088312CD0083164B088312CE00E9
:1003780083164C088312CF000A128A15B3240A1276
:100388008A114A088316CA0083124B088316CB00C9
:1003980083124C088316CC004408803AFF00803052
:1003A8007F02031DD9290A3043020318042A831641
:1003B80003134C084B044A0403196A2A4A08831297
:1003C800C70083164B088312C80083164C08831293
:1003D800C9000A128A15F6220A128A114A08490423
:1003E80048044704031D6A2A83164408803AFF001C
:1003F80080307F02031D022A02304302031C6A2A4E
:100408008316031345088312A00083164608831237
:10041800A100831647088312A2007030A300893018
:10042800A4004030A5000A128A15CF200A128A11AA
:100438000318202AF730212AF8308316C307031837
:10044800C40AFF30C40743080A128A111C250A127D
:100458008A1140088316C500831241088316C60016
:10046800831242088316C7004A088312A000831625
:100478004B088312A10083164C088312A20083162E
:1004880045088312A300831646088312A400831626
:1004980047088312A5000A128A156D230A128A11C9
:1004A80023088316C200831222088316C100831210
:1004B80021088316C000831220088316BF0000306D
:1004C800CA000030CB000030CC00C32A83160313C7
:1004D8004A088312C70083164B088312C800831684
:1004E8004C088312C9000A128A15F6220A128A11C8
:1004F8004A088316C200831249088316C100831272
:1005080048088316C000831247088316BF004208B4
:100518008312AB00831641088312AA008316400891
:100528008312A90083163F088312A8000A128A15AD
:10053800A8200A128A112808D6002908D7002A08F4
:10054800D80083164A088312D90083164B088312F1
:10055800DA0083164C088312DB000A168A1160271A
:100568000A128A1156088316CA008312570883167E
:10057800CB00831258088316CC00C301C401CD01F7
:10058800CD0A4D088312E00001300310E00DFF3E54
:10059800031DC92A0310600D4F3E84000A128A15F4
:1005A80000200A128A11E1000A128A1500200A1294
:1005B8008A11E2000A128A1500200A128A11E30041
:1005C8000A128A1500200A128A11E40064088316A8
:1005D8004202031DFF2A8312630883164102031D8A
:1005E800FF2A8312620883164002031DFF2A831222
:1005F800610883163F02031C092B0130FF007F08A6
:10060800CD070A304D06031DC52A3B0803390319D7
:10061800162B490884002D30831380000130FF0019
:100628007F08C9070130CD024D0A0319A72B4D08D1
:100638008312E00001300310E00DFF3E031D1F2B65
:100648000310600D4F3E84000A128A1500200A121A
:100658008A11A0000A128A1500200A128A11A10024
:100668000A128A1500200A128A11A2000A128A1593
:1006780000200A128A11A300831642088312A700D9
:10068800831641088312A600831640088312A5002A
:1006980083163F088312A4000A128A152C220A1214
:1006A8008A1123088316C800831222088316C700FC
:1006B800831221088316C600831220088316C500FA
:1006C80000308312A3000030A2000030A1000A30DD
:1006D800A000831648088312A700831647088312D0
:1006E800A600831646088312A500831645088312C0
:1006F800A4000A128A1587210A128A112308831670
:10070800C800831222088316C700831221088316A3
:10071800C600831220088316C500490884004508CE
:10072800303E102B8316031349088400303083139E
:1007380080000130FF007F08C907FF30C307031896
:10074800C40AFF30C4074408803AFF0080307F02A3
:10075800031DB02B013043020318962B8316031395
:100768003E08803AFF0080307F02031DBD2B093010
:100778003D02031CC32B083083160313C62B8316B4
:1007880003133D08CD004D088312E000E101600825
:100798008316BD02831261088316031CBE03BE02C2
:1007A8004D080319E02B490884002E30831380007C
:1007B8000130FF007F08C9074D080A128A111C255D
:1007C8000A128A1140088316B7008312410883165B
:1007D800B800831242088316B90037088312B400A0
:1007E800831638088312B500831639088312B600B9
:1007F80083164A088312B10083164B088312B2008D
:1008080083164C088312B3000A128A150E240A12A2
:100818008A113108C7003208C8003308C9000A1213
:100828008A15F6220A128A114A088316C200831210
:1008380049088316C100831248088316C000831232
:1008480047088316BF000130CD024D0A0319032D56
:100858004D088312E00001300310E00DFF3E031D38
:10086800302C0310600D4F3E84000A128A150020B8
:100878000A128A11A0000A128A1500200A128A1187
:10088800A1000A128A1500200A128A11A2000A126F
:100898008A1500200A128A11A300831642088312BF
:1008A800A700831641088312A60083164008831206
:1008B800A50083163F088312A4000A128A152C2269
:1008C8000A128A1123088316C80083122208831685
:1008D800C700831221088316C600831220088316D6
:1008E800C50000308312A3000030A2000030A10030
:1008F8000A30A000831648088312A7008316470809
:100908008312A600831646088312A500831645089D
:100918008312A4000A128A1587210A128A11230851
:100928008316C800831222088316C7008312210881
:100938008316C600831220088316C5004908840060
:100948004508303E831380000130FF007F08C90747
:100958004D088312E00001300310E00DFF3E031D37
:10096800B02C0310600D4F3E84000A128A15002037
:100978000A128A11A0000A128A1500200A128A1186
:10098800A1000A128A1500200A128A11A2000A126E
:100998008A1500200A128A11A300831642088312BE
:1009A800A700831641088312A60083164008831205
:1009B800A50083163F088312A4000A128A1587210E
:1009C8000A128A1123088316C2008312220883168A
:1009D800C100831221088316C00083122008252C29
:1009E800490884003030831380000130FF007F08FD
:1009F800C907FF30BD070318BE0AFF30BE073D0810
:100A08003E0403193528F42C83163B0803390319CF
:100A18003528490884002D30831380000130FF00F9
:100A28007F08C90735284908840083138001080016
:100A38008312C600C61F4B2EC609C60A4608803A4E
:100A4800123E031CCD2D0330AE004608A200A301C0
:100A5800A21BA3036430A0000030A1000A128A156B
:100A68003C210A128A112108A9002008A8000A308E
:100A7800A6000030A7000A128A15D3210A128A118B
:100A880026080A168A11E7260A128A11433E8400AC
:100A98000A128A1500200A128A11B1000A128A1550
:100AA80000200A128A11B2000A128A1500200A12BE
:100AB8008A11B3000330AE004608A800A901A81B9C
:100AC800A9036430A6000030A7000A128A15D321B2
:100AD8000A128A1126080A168A11E7260A128A11AA
:100AE8005E3E84000A128A1500200A128A11B40098
:100AF8000A128A1500200A128A11B5000A128A15EC
:100B080000200A128A11B6000A128A150E240A1247
:100B18008A113108C3003208C4003308C500033005
:100B2800AE004608A200A301A21BA3030A30A0003E
:100B38000030A1000A128A153C210A128A112008E5
:100B48000A168A11E7260A128A11283E84000A1218
:100B58008A1500200A128A11B1000A128A1500208B
:100B68000A128A11B2000A128A1500200A128A1182
:100B7800B3004308B4004408B5004508B6000A129B
:100B88008A150E243108C0003208C1003308C2009B
:100B980008004608803A753E031C302E0330AE002C
:100BA8004608A200A301A21BA3030A30A00000303C
:100BB800A1000A128A153C210A128A1120080A1675
:100BC8008A11E7260A128A11283E84000A128A1519
:100BD80000200A128A11B1000A128A1500200A128E
:100BE8008A11B2000A128A1500200A128A11B3006B
:100BF8000330AE004608A800A901A81BA9030A30C3
:100C0800A6000030A7000A128A15D3210A128A11F9
:100C180026080A168A11E7260A128A11433E84001A
:100C28000A128A1500200A128A11B4000A128A15BB
:100C380000200A128A11B5000A128A1500200A1229
:100C48008A11B6000A128A150E243108C00032082B
:100C5800C1003308C20008000330AE0046080A1677
:100C68008A11E7260A128A11283E84000A128A1578
:100C780000200A128A11C0000A128A1500200A12DE
:100C88008A11C1000A128A150020C200080046080D
:100C9800803A123E031CF62E0330AE004608A2002E
:100CA800A301A21BA3036430A0000030A1000A1214
:100CB8008A153C210A128A112108A9002008A800D7
:100CC8000A30A6000030A7000A128A15D3210A129A
:100CD8008A1126080A168A11E7260A128A111C3E6A
:100CE80084000A128A1500200A128A11B1000A1219
:100CF8008A1500200A128A11B2000A128A150020E9
:100D08000A128A11B3000330AE004608A800A901F0
:100D1800A81BA9036430A6000030A7000A128A1590
:100D2800D3210A128A1126080A168A11E7260A12FE
:100D38008A11373E84000A128A1500200A128A1185
:100D4800B4000A128A1500200A128A11B5000A1284
:100D58008A1500200A128A11B6000A128A150E2472
:100D68000A128A113108C3003208C4003308C500CA
:100D78000330AE004608A200A301A21BA3030A3059
:100D8800A0000030A1000A128A153C210A128A111B
:100D980020080A168A11E7260A128A11013E8400E1
:100DA8000A128A1500200A128A11B1000A128A153D
:100DB80000200A128A11B2000A128A1500200A12AB
:100DC8008A11B3004308B4004408B5004508B600CA
:100DD8000A128A150E243108C0003208C1003308EF
:100DE800C20008004608803A753E031C592F03309C
:100DF800AE004608A200A301A21BA3030A30A0006C
:100E08000030A1000A128A153C210A128A11200812
:100E18000A168A11E7260A128A11013E84000A126C
:100E28008A1500200A128A11B1000A128A150020B8
:100E38000A128A11B2000A128A1500200A128A11AF
:100E4800B3000330AE004608A800A901A81BA903F7
:100E58000A30A6000030A7000A128A15D3210A1208
:100E68008A1126080A168A11E7260A128A111C3ED8
:100E780084000A128A1500200A128A11B4000A1284
:100E88008A1500200A128A11B5000A128A15002054
:100E98000A128A11B6000A128A150E243108C000F7
:100EA8003208C1003308C20008000330AE0046080B
:100EB8000A168A11E7260A128A11013E84000A12CC
:100EC8008A1500200A128A11C0000A128A15002009
:100ED8000A128A11C1000A128A150020C2000800ED
:100EE80083168F150F110F110F100A168A11AB26D2
:100EF8000A128A110A128A1584200A128A110A16FD
:100F08008A11D7260A128A110A168A111B270A1271
:100F18008A1183129F14293083126D02031C8F2FAC
:100F280083160C130130FF007F088312EC0703308F
:100F38006C0603190814E701E801773083120313DC
:100F4800A000A3300A168A1144270A128A112030F9
:100F5800B1008030B2003A30B3006708E600660797
:100F6800903E840083170008A800840A0008A9009E
:100F78000A168A1109270A128A112808B4002908B2
:100F8800B5002A08B6000A128A150E240A128A1118
:100F98003108E9003208EA003308EB007B30DC0056
:100FA8006908DD006A08DE006B08DF00A3300A125A
:100FB8008A1131200A128A113B30B600A3300A1672
:100FC8008A11DE270A128A110130E7070318E80A96
:100FD8000030E8076808803AFF0080307F02031D70
:100FE800F72F29306702031CA12F83120313ED0189
:100FF8009F1483160C178F2F08308A000408840A60
:1010080082070034003480343F34003420344134C3
:101018000034C834423400347A34443440341C3404
:1010280046345034C3344734243474344934973400
:1010380018344B34BC34BE344C346B346E344E34B8
:101048000334153450347934AD346034F3344934CE
:101058007134003480343F34CD34CC343D34D7340B
:1010680023343C34123483343A34B734D1343834EA
:10107800C63427343734383486343534C034D6341B
:101088003334CC342B343234703489343034E7344C
:10109800DB342E34E5343C341E344234A2340D346F
:1010A80001340034003400340A340034003400348D
:1010B8006434003400340034E83403340034003439
:1010C8001034273400340034A0348634013400341A
:1010D800403442340F340034803496349834003429
:1010E8000034E134F53405340034CA349A343B34DE
:0E10F800203420342034003425346634003493
:10110800031305140317081400300A168A11CA2697
:101118000A128A151F083F3940389F0083169F1707
:101128009F161F1683121F14023083120313A40084
:101138000430A300B930A200A20BA028A30BA0285A
:10114800A40BA028A72808008E30AC00FF302B0580
:101158000319BC2801300310AB0CAA0CA90CA80C6D
:10116800FF3E031DAF280130FF007F08AC07AA2807
:101178002808A0002908A1002A08A2002C08A3001A
:10118800A4010A128A158A222008A8002108A900A9
:101198002208AA000800A21FDE282008003CA000A0
:1011A8002108031C210F003CA1002208031C220F68
:1011B800803CA200A51FED282308003CA3002408BA
:1011C800031C240F003CA4002508031C250F803CA9
:1011D800A5008030A2068030A50625082202031D3E
:1011E800080024082102031D080023082002080023
:1011F8008312031388108C1E06298C121A080810F3
:10120800EC0131290C1383161E08F000F10183123A
:101218001E08F200F3017208F300F20100307205B3
:10122800F40003307305F50070087404F6007108C3
:101238007504F7006D08F8007807903E840076087A
:1012480083178000840A770880000130FF007F0838
:10125800ED0729306D02031C9F147C08FF007B08F2
:101268008A007A088400790E8300FE0E7E0E09003B
:10127800A501A31F4629A209A309A20A0319A30AC3
:10128800A501A50AA11F4D29A009A109A00A0319B2
:10129800A10A2008210403197A29A401A40AA11B80
:1012A800612901300310A00DA10DFF3E031D562931
:1012B8000130FF007F08A407532921082302031DDA
:1012C800672920082202031C6F292008A20221088E
:1012D800031CA303A30201300310A10CA00CFF3EC2
:1012E800031D70290130A402031D61292508031973
:1012F8008229A209A309A20A0319A30A2308A100A3
:101308002208A0000800230822042104200403194D
:10131800CA29A901A90AA31B9F290130A800031003
:10132800A00DA10DA20DA30DA80B93290130FF005C
:101338007F08A9078F2923082702031DAD29220842
:101348002602031DAD2921082502031DAD29200809
:101358002402031CBD292008A4022108031C210F14
:10136800A5022208031C220FA6022308031C230F30
:10137800A70201300310A30CA20CA10CA00CFF3E85
:10138800031DBE290130A902031D9F292708A300B8
:101398002608A2002508A1002408A0000800AB0127
:1013A800A71FDD29A609A709A60A0319A70AAB01E1
:1013B800AB0AA91FE829A809A909A80A0319A90AB3
:1013C8000130FF007F08AB06AC01AD0126082704F9
:1013D80003191F2AAA01AA0AA71BFE290130031014
:1013E800A60DA70DFF3E031DF3290130FF007F085E
:1013F800AA07F02901300310AC0DAD0DFF3E031D07
:10140800FF2927082902031D0B2A26082802031C86
:10141800142A2608A8022708031CA903A9022C14C9
:1014280001300310A70CA60CFF3E031D152A01303E
:10143800AA02031DFE292B080319272AAC09AD09A6
:10144800AC0A0319AD0A2D08A7002C08A60008004D
:101458000030AC000030AB000030AA000030A9001A
:1014680023082204210420040319812AAD01AD0AAE
:10147800A31B4C2A0130A8000310A00DA10DA20D3A
:10148800A30DA80B402A0130FF007F08AD073C2AB6
:101498000130A8000310A90DAA0DAB0DAC0DA80BC7
:1014A8004E2A23082702031D632A22082602031D49
:1014B800632A21082502031D632A20082402031C2D
:1014C800742A2008A4022108031C210FA50222085F
:1014D800031C220FA6022308031C230FA7022914AA
:1014E80001300310A30CA20CA10CA00CFF3E031D9D
:1014F800752A0130AD02031D4C2A2C08A3002B08C5
:10150800A2002A08A1002908A0000800230803193E
:10151800922A220821042004031DA52A0030A000D5
:101528000030A1000030A20008000130FF007F0851
:10153800A30701300310A20CA10CA00CFF3E031D51
:101548009E2AFE3022050319C02A992A0130FF007D
:101558007F08A3070130A007003003180130A10756
:10156800003003180130A20701300310A20CA10CAF
:10157800A00CFF3E031DB92AFF3022050319D32A08
:10158800AA2A02302302031CD52A0130A302013003
:101598000310A00DA10DA20DFF3E031DCC2AA11F13
:1015A800C52A2318DD2AFF30A0057F30A105FF30AA
:1015B800A2050310A30C2308A500A601A70110305B
:1015C8000310A50DA60DA70DFF3E031DE42A25084F
:1015D800A0042608A1042708A20424080319080067
:1015E800A21708004708CB004808CC004908CD00DE
:1015F80003104C0D4D0DD3005308031D0C2B003068
:10160800CA000030C9000030C8000030C700080018
:101618004708CB004808CC004908CD001730031014
:10162800CD0CCC0CCB0CFF3E031D132B4B08CE006E
:10163800C817FF30C705FF30C8050030C90547087F
:10164800CF004808D0004908D100D2018E30D3021B
:10165800D31F432B5308803A8F3E031C032B0130C2
:101668000310D20CD10CD00CCF0CFF3E031D342B31
:101678000130FF007F08D3070319562B332B18308E
:1016880053020318032B53080319562B0130CB00C0
:101698000310CF0DD00DD10DD20DCB0B4C2B01303B
:1016A800D302472B4E080319642BCF09D009D1095F
:1016B800D209CF0A0319D00A0319D10A0319D20A89
:1016C8005208CA005108C9005008C8004F08C7008E
:1016D80008002008A6002108A7002208A800031077
:1016E800270D280DAE002E08031D832B0030A30004
:1016F8000030A2000030A1000030A000080023083C
:10170800A6002408A7002508A8000310270D280D07
:10171800AD002D0803197A2BA117FF30A005FF3063
:10172800A1050030A205A417FF30A305FF30A405CA
:101738000030A5050030AC000030AB000030AA0036
:101748000030A9007F30AE0298302D07A600260889
:10175800AE021830AD000130A6000310A90DAA0D85
:10176800AB0DAC0DA60BB12B25082202031DC22B15
:1017780024082102031DC22B23082002031CCF2B9F
:101788002308A0022408031C240FA1022508031C17
:10179800250AA202291401300310A00DA10DA20DE3
:1017A800FF3E031DD02B0130AD02031DAF2BAE1F32
:1017B800F22B2E08803A973E031C7A2B0130031037
:1017C800AC0CAB0CAA0CA90CFF3E031DE32B01309B
:1017D800FF007F08AE070319052CE22B18302E02F4
:1017E80003187A2B2E080319052C0130A6000310C4
:1017F800A90DAA0DAB0DAC0DA60BFB2B0130AE024B
:10180800F62B2C08A3002B08A2002A08A1002908FF
:10181800A00008003108B7003208B8003308B90042
:101828000310380D390DBA003A08031D222C003078
:10183800B1000030B2000030B30008003408B7002F
:101848003508B8003608B9000310380D390DBF0047
:101858003F08031D362C0030B1000030B2000030C4
:10186800B30008003F087B3EFF007F08BA07330833
:10187800BF003608FF007F08BF068030FF007F08E2
:10188800BF05B217B517FF30B405FF30B5050030F6
:10189800B6050030BB000030BC000030BD0007308A
:1018A800BE00311C652C3408BB073508031103182A
:1018B800350A031DBC07360803110318360A031D31
:1018C800BD0701300310B30CB20CB10CFF3E031D71
:1018D800662C01300310B40DB50DB60DFF3E031D87
:1018E8006E2C0130BE02031D552C0930BE00311C80
:1018F8008B2C3408BB07350803110318350A031D60
:10190800BC07360803110318360A031DBD0701304A
:101918000310B30CB20CB10CFF3E031D8C2C01302C
:101928000310BD0CBC0CBB0CFF3E031D942C0130F6
:10193800BE02031D7B2C3B08A0003C08A1003D080B
:10194800A2003A08A3003F08A4000A128A158A22B6
:101958002008B1002108B2002208B30008004A0894
:10196800D0004B08D1004C08D2000310510D520D85
:10197800D5004D08D0004E08D1004F08D200031002
:10198800510D520DD40055080319D62C5408550290
:101998000318DD2C5408D0005508D0021930500225
:1019A800031CDD2C4D08CA004E08CB004F08CC00A4
:1019B8000800540803190800550854020318EC2CB1
:1019C8005508D0005408D0021930500203180800F6
:1019D8000630D300CC1BD317CF1B5317CB17FF30C0
:1019E800CA05FF30CB050030CC05CE17FF30CD053A
:1019F800FF30CE050030CF055408550203182A2DB4
:101A080001300310CD0DCE0DCF0DFF3E031D052D6A
:101A18000130D402540855060319252D0130D3028C
:101A2800530807390319252D042D01300310CC0C58
:101A3800CB0CCA0CFF3E031D1A2D0130FF007F0896
:101A4800D507550854060319532D192D5508540266
:101A58000318532D01300310CA0DCB0DCC0DFF3EDA
:101A6800031D2F2D0130D5025408550603194F2D9B
:101A78000130D3025308073903194F2D2E2D013099
:101A88000310CF0CCE0CCD0CFF3E031D442D0130AE
:101A9800FF007F08D40755085406031D432DD31FA4
:101AA800652DFF30CA06FF30CB06FF30CC0601306B
:101AB800CA07003003180130CB0700300318013083
:101AC800CC07531F772DFF30CD06FF30CE06FF30F1
:101AD800CF060130CD07003003180130CE070030A3
:101AE80003180130CF07D3014A08CD074B0803116B
:101AF80003184B0A031DCE074C08031103184C0AA0
:101B0800031DCF07CF1F9A2DFF30CD06FF30CE061D
:101B1800FF30CF060130CD07003003180130CE0763
:101B2800003003180130CF07D301D30A4D08A000B5
:101B38004E08A1004F08A2005508A3005308A400AE
:101B48000A128A158A222008CA002108CB00220816
:101B5800CC0008002030840083130008831203138C
:101B6800A600840A0008A700840A0008A800840ABE
:101B78000008A9000310280D290DB3003308031D20
:101B8800CE2D0030A3000030A2000030A1000030AC
:101B9800A0000800233084000008A600840A00087A
:101BA800A700840A0008A800840A0008A9000310F6
:101BB800280D290DB20032080319C52D20308400E4
:101BC80000308004840A00308004840A8030800455
:101BD800840A0030800420308400FF308005840AA5
:101BE800FF308005840AFF308005840A00308005B4
:101BF8002330840000308004840A00308004840A82
:101C080080308004840A0030800423308400FF3050
:101C18008005840AFF308005840AFF308005840A25
:101C2800003080050030B1000030B0000030AF0057
:101C38000030AE007F30B302A0303207A60026087D
:101C4800B3022030B2000130A6000310AE0DAF0D74
:101C5800B00DB10DA60B292E233084000008A60074
:101C6800840A0008A700840A0008A800840A00085B
:101C7800A900203084000008AA00840A0008AB00EC
:101C8800840A0008AC00840A0008AD0029082D0267
:101C9800031D582E28082C02031D582E27082B0236
:101CA800031D582E26082A02031C7D2E233084008B
:101CB8000008A600840A0008A700840A0008A800F3
:101CC800840A0008A9002030840026088002840ABB
:101CD8002708031C270F8002840A2808031C280FE2
:101CE8008002840A2908031C290A8002033084021E
:101CF8002E14203084000310800D840A800D840A7D
:101D0800800D840A800D8403840384030130B202A9
:101D1800031D272EB31FA52E3308803A9F3E031CB0
:101D2800C52D01300310B10CB00CAF0CAE0CFF3E4A
:101D3800031D962E0130FF007F08B3070319B82E44
:101D4800952E203033020318C52D33080319B82EF9
:101D58000130A6000310AE0DAF0DB00DB10DA60BEE
:101D6800AE2E0130B302A92E3108A3003008A2001C
:101D78002F08A1002E08A00008008312C9006E30A9
:101D88004902031C692F0330AE000A30A6006430F4
:101D9800A00049080A168A117D270A128A150A1610
:101DA8008A11BD270A128A150A168A11E7260A120D
:101DB8008A15433E84000A128A1500200A128A15E1
:101DC800B1000A128A1500200A128A15B2000A12F6
:101DD8008A1500200A128A15B3000330AE00643059
:101DE800A60049080A168A11BD270A128A150A167A
:101DF8008A11E7260A128A155E3E84000A128A159D
:101E080000200A128A15B4000A128A1500200A1244
:101E18008A15B5000A128A1500200A128A15B6001A
:101E28000A128A150E240A128A153108C6003208C9
:101E3800C7003308C8000330AE000A30A0004908C4
:101E48000A168A117D270A128A150A168A11E726A8
:101E58000A128A15283E84000A128A1500200A12DE
:101E68008A15B1000A128A1500200A128A15B200D2
:101E78000A128A1500200A128A15B3004608B4000F
:101E88004708B5004808B6000A128A150E240A1237
:101E98008A153108C3003208C4003308C500003071
:101EA800B1000030B2003F30B3004308B40044082A
:101EB800B5004508B6000A128A150E243108C0007C
:101EC8003208C1003308C20008000B304902031C65
:101ED800D42F0330AE000A30A00049080A168A1130
:101EE8007D270A128A150A168A11E7260A128A1508
:101EF800283E84000A128A1500200A128A15B100A9
:101F08000A128A1500200A128A15B2000A128A15C6
:101F180000200A128A15B3000330AE000A30A6006A
:101F280049080A168A11BD270A128A150A168A1143
:101F3800E7260A128A15433E84000A128A150020F1
:101F48000A128A15B4000A128A1500200A128A1584
:101F5800B5000A128A1500200A128A15B6000A125C
:101F68008A150E240A128A153108C6003208C700DD
:101F78003308C8000030B1000030B2003F30B30071
:101F88004608B4004708B5004808B6000A128A1582
:101F98000E243108C0003208C1003308C20008000E
:101FA8000030B1000030B2003F30B3000330AE0063
:101FB80049080A168A11E7260A128A15283E84005B
:101FC8000A128A1500200A128A15B4000A128A1504
:101FD80000200A128A15B5000A128A1500200A1272
:101FE8008A15B6000A128A150E243108C000320874
:081FF800C1003308C20008001B
:102D560088018901031788018901080022082104D6
:102D66002004031908008030A206080064008001D0
:102D7600840A0406031900340406BA2EA00083163A
:102D8600981683120C1EC42E200899000800831280
:102D96000313A1002108A000A00DA00D1F08200606
:102DA600C33920069F0008008316031307138717ED
:102DB600181103178715333003139900181283125D
:102DC6009817903098000800B000AF01301CEF2E25
:102DD6002E08FF007F08AF070310AE0D0310B00CDE
:102DE6003008031DE92E2F0808007E088A007F0898
:102DF6008200F8260A168A118000840A04087D06D5
:102E060003190034FF0A0319FE0AFC2E2808A00045
:102E16002908A100A2018E30A300A4010A128A1576
:102E26008A222008A8002108A9002208AA00080072
:102E36009010CF3090051011FF308F00E7308E00D4
:102E46008C1283168C1683120C1383160C170B1711
:102E56008B170800003480343F34203400340034AB
:102E660000340034003400340034003400340034BC
:102E760000340034003400340034003400340034AC
:102E86000034A1002108A200200884000A128A1535
:102E960000200A168A11FF00220884007F08831387
:102EA60080000008031908000130FF007F08A20710
:102EB6000130FF007F08A007472F58085704560423
:102EC6000319672F8030D8065908CA005A08CB0064
:102ED6005B08CC005608CD005708CE005808CF0036
:102EE6000A128A15B3244A08D6004B08D7004C08A4
:102EF600D8000800A3000830A400A5012308A100FB
:102F060007300310A10CFF3E031D842F2508A200E5
:102F160022072104A5000310A30D20082502031C87
:102F2600962F2008A5020130A402031D812F250833
:102F36000800A401A501201CA62F2208A407031837
:102F4600A50A2308A50701300310A20DA30DFF3E15
:102F5600031DA72F01300310A10CA00CFF3E031D7B
:102F6600AE2F20082104031D9E2F2508A10024084A
:102F7600A0000800A700A90126080319DC2FA80154
:102F8600A80AA61BCD2F0310A60D0130FF007F084F
:102F9600A807C42F0310A90D26082702031CD72F44
:102FA6002608A70229140310A60C0130A802031D47
:102FB600CD2F290808008312A200220884000008E9
:102FC600A10021080A168A11C1260A168A110130A3
:102FD600FF007F08A207220884003B308313000607
:102FE600031DE02F0D300A168A11C1260A168A1112
:0A2FF6000A300A168A11C1260800ED
:04400E00D120FF3F7F
:00000001FF
