:060000000A128A1110280B
:10000800FE00030EF9000408FA000A08FB007F0846
:10001800FC000A128A15D9280A128A111328831398
:10002800CB30FD001730FE000C30FF00B7308400E5
:100038000A168A11ED260A128A117030FD00163050
:10004800FE009430FF006D3084000A168A11ED26F8
:100058000A128A11831790308400E0300A168A1138
:10006800A526E901EA01EB01EC0183010A128A15D0
:100078006C2B8316B2005D30A30001308312DC07BD
:10008800FF305C0784000A128A1500200A128A11C0
:100098008316B60036080319232D253036060319B2
:1000A80059283208840036081C2DA401A5015E28B1
:1000B8002515722801308312DC07FF305C078400A5
:1000C8000A128A1500200A128A118316B600003A0D
:1000D8000319232D663A03195C28412800302405AA
:1000E8008312E0000730831625058312E1006008BB
:1000F80061040319142D06308316A6000030A700EA
:100108002308840083130008B300840A0008B4009D
:10011800840A0008B5000330FF007F08A3073308EE
:100128008312A000831634088312A10083163508B1
:100138008312A2000030A3000030A4000030A50004
:100148000A128A15AC200A128A110318CB288316C2
:1001580033088312A000831634088312A100831683
:1001680035088312A2000A168A119D260A128A11DE
:1001780020088316B300831221088316B400831263
:1001880022088316B5000330A4040030A5048316A2
:10019800AC01AD013508340433040319B429B33074
:1001A8008400831300088312E000840A0008E10039
:1001B800840A0008E200840A0008E3000F300310F4
:1001C800E30CE20CE10CE00CFF3E031DE328FF30DA
:1001D8006005E40000306105E5006408823E83168E
:1001E800AC00831265080318013EFF3E8316AD007C
:1001F800FF30AC070318AD0AFF30AD070330831298
:10020800A0000030A10083162D088312A3008316D6
:100218002C088312A2000A168A1178270A128A115A
:1002280021088316AD00831220088316AC000A301B
:100238008312A6000030A70083162D088312A90098
:1002480083162C088312A8000A128A15A8210A12FC
:100258008A1127088316AD00831226088316AC007E
:10026800AD1F3C29FF30AC070318AD0AFF30AD07BE
:100278002C03FF3A0A128A1128250A128A1140080B
:100288008316AE00831241088316AF00831242081A
:100298008316B00033088312B10083163408831222
:1002A800B200831635088312B30083162E08831212
:1002B800B40083162F088312B50083163008831202
:1002C800B6000A128A150E240A128A1131088316FA
:1002D800AE00831232088316AF00831233088316E8
:1002E800B0002E088312A00083162F088312A100E5
:1002F800831630088312A2000030A3008030A400C7
:100308003F30A5000A128A15AC200A128A11031878
:100318009429FF308316AC070318AD0AFF30B329C0
:1003280083162E088312A00083162F088312A100BB
:10033800831630088312A2000030A3002030A400E6
:100348004130A5000A128A15AC200A128A11031C32
:10035800B42901308316AC070318AD0A0030AD0785
:1003680006300A128A15C1260A128A114008CA00E4
:100378004108CB004208CC00831633088312CD0015
:10038800831634088312CE00831635088312CF00F3
:100398000A128A15B3240A128A114A088316B3006E
:1003A80083124B088316B40083124C088316B500D9
:1003B8002D08803AFF0080307F02031DE5290A30AE
:1003C8002C020318102A8316031335083404330447
:1003D8000319762A33088312C70083163408831258
:1003E800C800831635088312C9000A128A118027AB
:1003F8000A128A114A08490448044704031D762A48
:1004080083162D08803AFF0080307F02031D0E2AD4
:1004180002302C02031C762A831603132E0883123B
:10042800A00083162F088312A100831630088312B8
:10043800A2007030A3008930A4004030A5000A1241
:100448008A15AC200A128A1103182C2AF7302D2A93
:10045800F8308316AC070318AD0AFF30AD072C0837
:100468000A128A1128250A128A1140088316AE003A
:10047800831241088316AF00831242088316B00026
:1004880033088312A000831634088312A100831650
:1004980035088312A20083162E088312A300831640
:1004A8002F088312A400831630088312A5000A12AD
:1004B8008A15CB220A128A1123088316AB008312ED
:1004C80022088316AA00831221088316A900831222
:1004D80020088316A8000030B3000030B4000030B4
:1004E800B500CF2A8316031333088312C700831677
:1004F80034088312C800831635088312C9000A120B
:100508008A1180270A128A114A088316AB008312BF
:1005180049088316AA00831248088316A900831283
:1005280047088316A8002B088312AB0083162A08F5
:100538008312AA00831629088312A90083162808A3
:100548008312A8000A128A1585200A128A1128081F
:10055800D6002908D7002A08D80083163308831242
:10056800D900831634088312DA00831635088312FB
:10057800DB000A168A113C270A128A1156088316CC
:10058800B300831257088316B400831258088316E1
:10059800B500AC01AD01B601B60A36088312E00019
:1005A80001300310E00DFF3E031DD52A0310600D36
:1005B8004F3E84000A128A1500200A128A11E100AF
:1005C8000A128A1500200A128A11E2000A128A15F4
:1005D80000200A128A11E3000A128A1500200A1262
:1005E8008A11E400640883162B02031D0B2B831267
:1005F800630883162A02031D0B2B831262088316D5
:100608002902031D0B2B8312610883162802031C81
:10061800152B0130FF007F08B6070A303606031D88
:10062800D12A240803390319222B320884002D30DB
:10063800831380000130FF007F08B2070130B60243
:10064800360A0319B32B36088312E0000130031071
:10065800E00DFF3E031D2B2B0310600D4F3E840061
:100668000A128A1500200A128A11A0000A128A1595
:1006780000200A128A11A1000A128A1500200A1203
:100688008A11A2000A128A1500200A128A11A300F0
:1006980083162B088312A70083162A088312A60044
:1006A800831629088312A500831628088312A4003C
:1006B8000A128A1501220A128A1123088316B10028
:1006C800831222088316B000831221088316AF0014
:1006D800831220088316AE0000308312A300003076
:1006E800A2000030A1000A30A0008316310883124E
:1006F800A700831630088312A60083162F088312DA
:10070800A50083162E088312A4000A128A155C21FC
:100718000A128A1123088316B1008312220883164D
:10072800B000831221088316AF00831220088316B5
:10073800AE00320884002E08303E1C2B83160313AB
:10074800320884003030831380000130FF007F08B6
:10075800B207FF30AC070318AD0AFF30AD072D080C
:10076800803AFF0080307F02031DBC2B01302C0231
:100778000318A22B831603132708803AFF00803042
:100788007F02031DC92B09302602031CCF2B08301A
:1007980083160313D22B831603132608B6003608D4
:1007A8008312E000E10160088316A6028312610843
:1007B8008316031CA703A70236080319EC2B32087B
:1007C80084002E30831380000130FF007F08B207B9
:1007D80036080A128A1128250A128A114008831637
:1007E800A000831241088316A100831242088316D1
:1007F800A20020088312B400831621088312B500D2
:10080800831622088312B600831633088312B100B8
:10081800831634088312B200831635088312B30096
:100828000A128A150E240A128A113108C7003208E2
:10083800C8003308C9000A128A1180270A128A11CF
:100848004A088316AB00831249088316AA0083124C
:1008580048088316A900831247088316A8000130A8
:10086800B602360A03190F2D36088312E00001304C
:100878000310E00DFF3E031D3C2C0310600D4F3E9E
:1008880084000A128A1500200A128A11A0000A128E
:100898008A1500200A128A11A1000A128A1500205E
:1008A8000A128A11A2000A128A1500200A128A1155
:1008B800A30083162B088312A70083162A08831225
:1008C800A600831629088312A50083162808831218
:1008D800A4000A128A1501220A128A112308831613
:1008E800B100831222088316B000831221088316F0
:1008F800AF00831220088316AE0000308312A300D5
:100908000030A2000030A1000A30A0008316310890
:100918008312A700831630088312A60083162F08B7
:100928008312A50083162E088312A4000A128A15C2
:100938005C210A128A1123088316B1008312220847
:100948008316B000831221088316AF008312200893
:100958008316AE00320884002E08303E83138000D0
:100968000130FF007F08B20736088312E00001302B
:100978000310E00DFF3E031DBC2C0310600D4F3E1D
:1009880084000A128A1500200A128A11A0000A128D
:100998008A1500200A128A11A1000A128A1500205D
:1009A8000A128A11A2000A128A1500200A128A1154
:1009B800A30083162B088312A70083162A08831224
:1009C800A600831629088312A50083162808831217
:1009D800A4000A128A155C210A128A1123088316B8
:1009E800AB00831222088316AA00831221088316FB
:1009F800A90083122008312C320884003030831378
:100A080080000130FF007F08B207FF30A6070318F7
:100A1800A70AFF30A7072608270403194128002D35
:100A280083162408033903194128320884002D301D
:100A3800831380000130FF007F08B2074128320885
:100A480084008313800108008312C600C61F572E36
:100A5800C609C60A4608803A123E031CD92D03303F
:100A6800AE004608A200A301A21BA3036430A000A5
:100A78000030A1000A128A1511210A128A112108D0
:100A8800A9002008A8000A30A6000030A7000A1212
:100A98008A15A8210A128A1126080A168A11D82648
:100AA8000A128A11433E84000A128A1500200A128B
:100AB8008A11B1000A128A1500200A128A11B2009E
:100AC8000A128A1500200A128A11B3000330AE00F8
:100AD8004608A800A901A81BA9036430A600003095
:100AE800A7000A128A15A8210A128A1126080A16CE
:100AF8008A11D8260A128A115E3E84000A128A15C3
:100B080000200A128A11B4000A128A1500200A125B
:100B18008A11B5000A128A1500200A128A11B60035
:100B28000A128A150E240A128A113108C3003208E3
:100B3800C4003308C5000330AE004608A200A30174
:100B4800A21BA3030A30A0000030A1000A128A15D4
:100B580011210A128A1120080A168A11D8260A12A7
:100B68008A11283E84000A128A1500200A128A1166
:100B7800B1000A128A1500200A128A11B2000A125C
:100B88008A1500200A128A11B3004308B4004408E9
:100B9800B5004508B6000A128A150E243108C000AF
:100BA8003208C1003308C20008004608803A753E82
:100BB800031C3C2E0330AE004608A200A301A21B72
:100BC800A3030A30A0000030A1000A128A151121DF
:100BD8000A128A1120080A168A11D8260A128A11BE
:100BE800283E84000A128A1500200A128A11B100D0
:100BF8000A128A1500200A128A11B2000A128A15EE
:100C080000200A128A11B3000330AE004608A8007B
:100C1800A901A81BA9030A30A6000030A7000A12E0
:100C28008A15A8210A128A1126080A168A11D826B6
:100C38000A128A11433E84000A128A1500200A12F9
:100C48008A11B4000A128A1500200A128A11B50006
:100C58000A128A1500200A128A11B6000A128A1589
:100C68000E243108C0003208C1003308C200080051
:100C78000330AE0046080A168A11D8260A128A11CD
:100C8800283E84000A128A1500200A128A11C00020
:100C98000A128A1500200A128A11C1000A128A153E
:100CA8000020C20008004608803A123E031C022FAA
:100CB8000330AE004608A200A301A21BA3036430C0
:100CC800A0000030A1000A128A1511210A128A1107
:100CD8002108A9002008A8000A30A6000030A700B3
:100CE8000A128A15A8210A128A1126080A168A11D8
:100CF800D8260A128A111C3E84000A128A1500207E
:100D08000A128A11B1000A128A1500200A128A11E1
:100D1800B2000A128A1500200A128A11B3000330A1
:100D2800AE004608A800A901A81BA9036430A600C4
:100D38000030A7000A128A15A8210A128A1126086B
:100D48000A168A11D8260A128A11373E84000A1216
:100D58008A1500200A128A11B4000A128A15002086
:100D68000A128A11B5000A128A1500200A128A117D
:100D7800B6000A128A150E240A128A113108C30015
:100D88003208C4003308C5000330AE004608A2008C
:100D9800A301A21BA3030A30A0000030A1000A127D
:100DA8008A1511210A128A1120080A168A11D826D2
:100DB8000A128A11013E84000A128A1500200A12BA
:100DC8008A11B1000A128A1500200A128A11B2008B
:100DD8000A128A1500200A128A11B3004308B400C7
:100DE8004408B5004508B6000A128A150E243108D1
:100DF800C0003208C1003308C20008004608803A23
:100E0800753E031C652F0330AE004608A200A301FF
:100E1800A21BA3030A30A0000030A1000A128A1501
:100E280011210A128A1120080A168A11D8260A12D4
:100E38008A11013E84000A128A1500200A128A11BA
:100E4800B1000A128A1500200A128A11B2000A1289
:100E58008A1500200A128A11B3000330AE00460832
:100E6800A800A901A81BA9030A30A6000030A70002
:100E78000A128A15A8210A128A1126080A168A1146
:100E8800D8260A128A111C3E84000A128A150020EC
:100E98000A128A11B4000A128A1500200A128A114D
:100EA800B5000A128A1500200A128A11B6000A1221
:100EB8008A150E243108C0003208C1003308C20068
:100EC80008000330AE0046080A168A11D8260A120E
:100ED8008A11013E84000A128A1500200A128A111A
:100EE800C0000A128A1500200A128A11C1000A12CB
:100EF8008A150020C20008004708CB004808CC002B
:100F08004908CD0003104C0D4D0DD3005308031DA7
:100F1800962F0030CA000030C9000030C8000030E9
:100F2800C70008004708CB004808CC004908CD0096
:100F380017300310CD0CCC0CCB0CFF3E031D9D2F9E
:100F48004B08CE00C817FF30C705FF30C805003072
:100F5800C9054708CF004808D0004908D100D20188
:100F68008E30D302D31FCD2F5308803A8F3E031CF7
:100F78008D2F01300310D20CD10CD00CCF0CFF3EBA
:100F8800031DBE2F0130FF007F08D3070319E02F90
:100F9800BD2F1830530203188D2F53080319E02F63
:100FA8000130CB000310CF0DD00DD10DD20DCB0BDE
:100FB800D62F0130D302D12F4E080319EE2FCF09B7
:100FC800D009D109D209CF0A0319D00A0319D10AC5
:100FD8000319D20A5208CA005108C9005008C800AB
:100FE8004F08C7000800A0008316981683120C1E2D
:100FF800FA2F20089900080008308A000408840A9B
:1010080082070034003480343F34003420344134C3
:101018000034C834423400347A34443440341C3404
:1010280046345034C3344734243474344934973400
:1010380018344B34BC34BE344C346B346E344E34B8
:101048000334153450347934AD346034F3344934CE
:101058007134003480343F34CD34CC343D34D7340B
:1010680023343C34123483343A34B734D1343834EA
:10107800C63427343734383486343534C034D6341B
:101088003334CC342B343234703489343034E7344C
:10109800DB342E34E5343C341E344234A2340D346F
:1010A80001340034003400340A340034003400348D
:1010B8006434003400340034E83403340034003439
:1010C8001034273400340034A0348634013400341A
:1010D800403442340F340034803496349834003429
:1010E8000034E134F53405340034CA349A343B34DE
:0E10F800203420342034003425346634003493
:10110A008E30AC00FF302B050319992801300310EB
:10111A00AB0CAA0CA90CA80CFF3E031D8C280130AD
:10112A00FF007F08AC0787282808A0002908A1002B
:10113A002A08A2002C08A300A4010A128A155F2219
:10114A002008A8002108A9002208AA000800A21F56
:10115A00BB282008003CA0002108031C210F003CEA
:10116A00A1002208031C220F803CA200A51FCA2846
:10117A002308003CA3002408031C240F003CA400FD
:10118A002508031C250F803CA5008030A20680306C
:10119A00A50625082202031D080024082102031DB2
:1011AA000800230820020800831203130C13831675
:1011BA001E08F000F10183121E08F200F301720802
:1011CA00F300F20100307205F40003307305F500F4
:1011DA0070087404F60071087504F7006C08F800CA
:1011EA007807903E8400760883178000840A77087F
:1011FA0080000130FF007F08EC0728306C02031CD6
:10120A009F147C08FF007B088A007A088400790E04
:10121A008300FE0E7E0E0900A501A31F1B29A20949
:10122A00A309A20A0319A30AA501A50AA11F222933
:10123A00A009A109A00A0319A10A20082104031977
:10124A004F29A401A40AA11B362901300310A00DBD
:10125A00A10DFF3E031D2B290130FF007F08A407C3
:10126A00282921082302031D3C2920082202031CE5
:10127A0044292008A2022108031CA303A302013067
:10128A000310A10CA00CFF3E031D45290130A40246
:10129A00031D3629250803195729A209A309A20AF9
:1012AA000319A30A2308A1002208A00008002308A2
:1012BA0022042104200403199F29A901A90AA31BB6
:1012CA0074290130A8000310A00DA10DA20DA30DD1
:1012DA00A80B68290130FF007F08A90764292308A1
:1012EA002702031D822922082602031D82292108BA
:1012FA002502031D822920082402031C92292008A2
:10130A00A4022108031C210FA5022208031C220F94
:10131A00A6022308031C230FA70201300310A30C03
:10132A00A20CA10CA00CFF3E031D93290130A902B7
:10133A00031D74292708A3002608A2002508A10076
:10134A002408A0000800AB01A71FB229A609A70913
:10135A00A60A0319A70AAB01AB0AA91FBD29A80946
:10136A00A909A80A0319A90A0130FF007F08AB06D8
:10137A00AC01AD01260827040319F429AA01AA0A17
:10138A00A71BD32901300310A60DA70DFF3E031D8D
:10139A00C8290130FF007F08AA07C52901300310B8
:1013AA00AC0DAD0DFF3E031DD42927082902031DEC
:1013BA00E02926082802031CE9292608A80227088A
:1013CA00031CA903A9022C1401300310A70CA60CB4
:1013DA00FF3E031DEA290130AA02031DD3292B0867
:1013EA000319FC29AC09AD09AC0A0319AD0A2D0889
:1013FA00A7002C08A60008000030AC000030AB00A3
:10140A000030AA000030A900230822042104200485
:10141A000319562AAD01AD0AA31B212A0130A800DF
:10142A000310A00DA10DA20DA30DA80B152A0130C2
:10143A00FF007F08AD07112A0130A8000310A90D8B
:10144A00AA0DAB0DAC0DA80B232A23082702031DF6
:10145A00382A22082602031D382A21082502031DDC
:10146A00382A20082402031C492A2008A402210839
:10147A00031C210FA5022208031C220FA60223081F
:10148A00031C230FA702291401300310A30CA20C7A
:10149A00A10CA00CFF3E031D4A2A0130AD02031D18
:1014AA00212A2C08A3002B08A2002A08A100290837
:1014BA00A000080023080319672A2208210420042F
:1014CA00031D7A2A0030A0000030A1000030A200DB
:1014DA0008000130FF007F08A30701300310A20CA7
:1014EA00A10CA00CFF3E031D732AFE30220503192E
:1014FA00952A6E2A0130FF007F08A3070130A00752
:10150A00003003180130A107003003180130A20788
:10151A0001300310A20CA10CA00CFF3E031D8E2A61
:10152A00FF3022050319A82A7F2A02302302031C4E
:10153A00AA2A0130A30201300310A00DA10DA20DA9
:10154A00FF3E031DA12AA11F9A2A2318B22AFF309F
:10155A00A0057F30A105FF30A2050310A30C2308C4
:10156A00A500A601A70110300310A50DA60DA70D11
:10157A00FF3E031DB92A2508A0042608A10427084E
:10158A00A204240803190800A21708002008A600CC
:10159A002108A7002208A8000310270D280DAE0075
:1015AA002E08031DE12A0030A3000030A2000030FB
:1015BA00A1000030A00008002308A6002408A70004
:1015CA002508A8000310270D280DAD002D080319C2
:1015DA00D82AA117FF30A005FF30A1050030A205C7
:1015EA00A417FF30A305FF30A4050030A50500307D
:1015FA00AC000030AB000030AA000030A9007F30F8
:10160A00AE0298302D07A6002608AE021830AD00AB
:10161A000130A6000310A90DAA0DAB0DAC0DA60B47
:10162A000F2B25082202031D202B24082102031D4B
:10163A00202B23082002031C2D2B2308A002240898
:10164A00031C240FA1022508031C250AA20229143F
:10165A0001300310A00DA10DA20DFF3E031D2E2B7C
:10166A000130AD02031D0D2BAE1F502B2E08803A00
:10167A00973E031CD82A01300310AC0CAB0CAA0C01
:10168A00A90CFF3E031D412B0130FF007F08AE0766
:10169A000319632B402B18302E020318D82A2E0860
:1016AA000319632B0130A6000310A90DAA0DAB0D77
:1016BA00AC0DA60B592B0130AE02542B2C08A300FB
:1016CA002B08A2002A08A1002908A00008008316F6
:1016DA008F150F110F110F100A168A1197260A1269
:1016EA008A150A168A11DC270A128A150A168A111D
:1016FA00C8260A128A150A168A11BA260A128A15E1
:10170A0083129F14283083126C02031C872B8316C2
:10171A000C138312E701E801773083120313A00048
:10172A00B7300A168A1120270A128A152830B10002
:10173A00A030B2003B30B3006708E6006607903E6F
:10174A00840083170008A800840A0008A9000A1662
:10175A008A11FA260A128A152808B4002908B5003F
:10176A002A08B6000A128A150E240A128A153108A6
:10177A00E9003208EA003308EB007B30DC00690834
:10178A00DD006A08DE006B08DF00B7300A128A1132
:10179A003D200A128A153B30CA00B7300A168A1150
:1017AA00BA270A128A150130E7070318E80A003037
:1017BA00E8076808803AFF0080307F02031DE72BA4
:1017CA0029306702031C912B773083120313A00080
:1017DA00B7300A168A1120270A128A157B30DC00D4
:1017EA006D08DD006E08DE006F08DF00B7300A12F0
:1017FA008A113D200A128A153B30CA00B7300A16F0
:10180A008A11BA270A128A15EC019F1483160C173B
:10181A00872B3108B7003208B8003308B900031023
:10182A00380D390DBA003A08031D222C0030B100D8
:10183A000030B2000030B30008003408B7003508A1
:10184A00B8003608B9000310380D390DBF003F083B
:10185A00031D362C0030B1000030B2000030B30056
:10186A0008003F087B3EFF007F08BA073308BF0025
:10187A003608FF007F08BF068030FF007F08BF05DB
:10188A00B217B517FF30B405FF30B5050030B605FD
:10189A000030BB000030BC000030BD000730BE0085
:1018AA00311C652C3408BB07350803110318350AA7
:1018BA00031DBC07360803110318360A031DBD07AA
:1018CA0001300310B30CB20CB10CFF3E031D662CA1
:1018DA0001300310B40DB50DB60DFF3E031D6E2C7D
:1018EA000130BE02031D552C0930BE00311C8B2C61
:1018FA003408BB07350803110318350A031DBC0752
:10190A00360803110318360A031DBD0701300310F8
:10191A00B30CB20CB10CFF3E031D8C2C013003102A
:10192A00BD0CBC0CBB0CFF3E031D942C0130BE0247
:10193A00031D7B2C3B08A0003C08A1003D08A20027
:10194A003A08A3003F08A4000A128A155F22200859
:10195A00B1002108B2002208B30008004A08D000EA
:10196A004B08D1004C08D2000310510D520DD5007E
:10197A004D08D0004E08D1004F08D2000310510D77
:10198A00520DD40055080319D62C540855020318D1
:10199A00DD2C5408D0005508D00219305002031C1F
:1019AA00DD2C4D08CA004E08CB004F08CC000800B9
:1019BA00540803190800550854020318EC2C55085A
:1019CA00D0005408D002193050020318080006301B
:1019DA00D300CC1BD317CF1B5317CB17FF30CA0525
:1019EA00FF30CB050030CC05CE17FF30CD05FF30D8
:1019FA00CE050030CF055408550203182A2D0130B0
:101A0A000310CD0DCE0DCF0DFF3E031D052D013068
:101A1A00D402540855060319252D0130D302530860
:101A2A0007390319252D042D01300310CC0CCB0CDA
:101A3A00CA0CFF3E031D1A2D0130FF007F08D5078F
:101A4A00550854060319532D192D55085402031825
:101A5A00532D01300310CA0DCB0DCC0DFF3E031DD3
:101A6A002F2D0130D5025408550603194F2D013088
:101A7A00D3025308073903194F2D2E2D01300310B5
:101A8A00CF0CCE0CCD0CFF3E031D442D0130FF00C0
:101A9A007F08D40755085406031D432DD31F652D0F
:101AAA00FF30CA06FF30CB06FF30CC060130CA072A
:101ABA00003003180130CB07003003180130CC077F
:101ACA00531F772DFF30CD06FF30CE06FF30CF06ED
:101ADA000130CD07003003180130CE07003003185B
:101AEA000130CF07D3014A08CD074B080311031869
:101AFA004B0A031DCE074C08031103184C0A031D99
:101B0A00CF07CF1F9A2DFF30CD06FF30CE06FF300C
:101B1A00CF060130CD07003003180130CE07003060
:101B2A0003180130CF07D301D30A4D08A0004E088D
:101B3A00A1004F08A2005508A3005308A4000A12E6
:101B4A008A155F222008CA002108CB002208CC008F
:101B5A000800203084008313000883120313A600B0
:101B6A00840A0008A700840A0008A800840A00085A
:101B7A00A9000310280D290DB3003308031DCE2D2B
:101B8A000030A3000030A2000030A1000030A00005
:101B9A000800233084000008A600840A0008A70071
:101BAA00840A0008A800840A0008A9000310280D66
:101BBA00290DB20032080319C52D203084000030E7
:101BCA008004840A00308004840A80308004840AF5
:101BDA000030800420308400FF308005840AFF3002
:101BEA008005840AFF308005840A0030800523308E
:101BFA00840000308004840A00308004840A803023
:101C0A008004840A0030800423308400FF30800579
:101C1A00840AFF308005840AFF308005840A003078
:101C2A0080050030B1000030B0000030AF00003055
:101C3A00AE007F30B302A0303207A6002608B302F6
:101C4A002030B2000130A6000310AE0DAF0DB00D6A
:101C5A00B10DA60B292E233084000008A600840AA1
:101C6A000008A700840A0008A800840A0008A9003E
:101C7A00203084000008AA00840A0008AB00840A05
:101C8A000008AC00840A0008AD0029082D02031DD3
:101C9A00582E28082C02031D582E27082B02031D34
:101CAA00582E26082A02031C7D2E233084000008A1
:101CBA00A600840A0008A700840A0008A800840A6B
:101CCA000008A9002030840026088002840A270818
:101CDA00031C270F8002840A2808031C280F80028D
:101CEA00840A2908031C290A8002033084022E145C
:101CFA00203084000310800D840A800D840A800D30
:101D0A00840A800D8403840384030130B202031D14
:101D1A00272EB31FA52E3308803A9F3E031CC52DDC
:101D2A0001300310B10CB00CAF0CAE0CFF3E031D1A
:101D3A00962E0130FF007F08B3070319B82E952E9F
:101D4A00203033020318C52D33080319B82E013089
:101D5A00A6000310AE0DAF0DB00DB10DA60BAE2E41
:101D6A000130B302A92E3108A3003008A2002F08BF
:101D7A00A1002E08A00008008312C9006E30490293
:101D8A00031C692F0330AE000A30A6006430A0009D
:101D9A0049080A168A1159270A128A150A168A1137
:101DAA0099270A128A150A168A11D8260A128A153A
:101DBA00433E84000A128A1500200A128A15B100CD
:101DCA000A128A1500200A128A15B2000A128A1506
:101DDA0000200A128A15B3000330AE006430A60050
:101DEA0049080A168A1199270A128A150A168A11A7
:101DFA00D8260A128A155E3E84000A128A15002025
:101E0A000A128A15B4000A128A1500200A128A15C3
:101E1A00B5000A128A1500200A128A15B6000A129B
:101E2A008A150E240A128A153108C6003208C7001C
:101E3A003308C8000330AE000A30A00049080A1669
:101E4A008A1159270A128A150A168A11D8260A12DD
:101E5A008A15283E84000A128A1500200A128A1559
:101E6A00B1000A128A1500200A128A15B2000A1253
:101E7A008A1500200A128A15B3004608B4004708DA
:101E8A00B5004808B6000A128A150E240A128A15E5
:101E9A003108C3003208C4003308C5000030B1005D
:101EAA000030B2003F30B3004308B4004408B50024
:101EBA004508B6000A128A150E243108C0003208F5
:101ECA00C1003308C20008000B304902031CD42F9A
:101EDA000330AE000A30A00049080A168A115927B1
:101EEA000A128A150A168A11D8260A128A15283E53
:101EFA0084000A128A1500200A128A15B1000A12F1
:101F0A008A1500200A128A15B2000A128A150020C0
:101F1A000A128A15B3000330AE000A30A600490837
:101F2A000A168A1199270A128A150A168A11D826B8
:101F3A000A128A15433E84000A128A1500200A12E0
:101F4A008A15B4000A128A1500200A128A15B500E9
:101F5A000A128A1500200A128A15B6000A128A1570
:101F6A000E240A128A153108C6003208C70033083F
:101F7A00C8000030B1000030B2003F30B30046085C
:101F8A00B4004708B5004808B6000A128A150E249C
:101F9A003108C0003208C1003308C200080000300E
:101FAA00B1000030B2003F30B3000330AE00490840
:101FBA000A168A11D8260A128A15283E84000A129D
:101FCA008A1500200A128A15B4000A128A150020FE
:101FDA000A128A15B5000A128A1500200A128A15F1
:101FEA00B6000A128A150E243108C0003208C10050
:061FFA003308C2000800DC
:102D2800003480343F348801890103178801890100
:102D38000800220821042004031908008030A20694
:102D4800080064008001840A04060319003404069C
:102D5800A62E83120313A1002108A000A00DA00D28
:102D68001F082006C33920069F0008009010CF30A6
:102D780090051011FF308F00E7308E000C1383167A
:102D88000C170B178B1708008316031307138717E5
:102D9800181103178715333003139900181283127B
:102DA8009817903098000800B000AF01301CE02E52
:102DB8002E08FF007F08AF070310AE0D0310B00CFC
:102DC8003008031DDA2E2F0808007E088A007F08C5
:102DD8008200E9260A168A118000840A04087D0602
:102DE80003190034FF0A0319FE0AED2E2808A00073
:102DF8002908A100A2018E30A300A4010A128A1595
:102E08005F222008A8002108A9002208AA000800BB
:102E180020340034003400340034003400340034EA
:102E280000340034003400340034003400340034FA
:102E38000034003400340034A2002208A100200825
:102E480084000A128A1500200A168A11FF00210838
:102E580084007F08831380000008031908000130EC
:102E6800FF007F08A1070130FF007F08A007232F7C
:102E78005808570456040319432F8030D8065908B8
:102E8800CA005A08CB005B08CC005608CD0057088A
:102E9800CE005808CF000A128A15B3244A08D60073
:102EA8004B08D7004C08D8000800A3000830A4003D
:102EB800A5012308A10007300310A10CFF3E031D44
:102EC800602F2508A20022072104A5000310A30DE6
:102ED80020082502031C722F2008A5020130A40235
:102EE800031D5D2F25080800A401A501201C822FC1
:102EF8002208A4070318A50A2308A5070130031010
:102F0800A20DA30DFF3E031D832F01300310A10C5A
:102F1800A00CFF3E031D8A2F20082104031D7A2FD1
:102F28002508A1002408A0000800A700A901260878
:102F38000319B82FA801A80AA61BA92F0310A60DCC
:102F48000130FF007F08A807A02F0310A90D26084D
:102F58002702031CB32F2608A70229140310A60C66
:102F68000130A802031DA92F290808008312A20016
:102F7800220884000008A10021080A128A11F727F4
:102F88000A168A110130FF007F08A2072208840070
:102F98003B3083130006031DBC2F0D300A128A1123
:102FA800F7270A168A110A300A128A11F727080029
:102FB800031305140317081400300A168A11AD26E6
:102FC8000A168A111F083F3940389F0083169F1739
:102FD8009F121F1283121F14023083120313A400BE
:102FE8000430A300B930A200A20BF82FA30BF82FCE
:082FF800A40BF82FFF2F0800C5
:04400E00D120FF3F7F
:00000001FF
