:060000000A128A1110280B
:10000800FE00030EF9000408FA000A08FB007F0846
:10001800FC000A128A11722A0A128A111328831301
:100028006330FD000330FE004130FF004D30840096
:100038000A128A115B230A128A11A0308400F03058
:100048000A128A119C23E30183010A128A114D299D
:10005800C8003930C2000130B807FF3038078400C3
:100068000A128A11AA220A128A11C9004908031918
:1000780049292530490603194A28480884004908AF
:1000880080000130FF007F08C8072F28C3014D28D2
:1000980043160130B807FF30380784000A128A1166
:1000A800AA220A128A11C900003A03194929643A96
:1000B800031965280D3A03196528053A03194C28D0
:1000C8002F28431E7628420884000008C400840AAA
:1000D8000008C500840A0008C600840A0008C70092
:1000E80004308728420884000008BB00840A0008FE
:1000F800BC003B08C4003C08C5000030C51BFF30ED
:10010800C600C7000230FF007F08C207C71F9B2830
:100118000330FF007F08C304C409C509C609C7091D
:10012800C40A0319C50A0319C60A0319C70AC9016B
:10013800C90A4908BB0001300310BB0DFF3E031D6F
:10014800A02803103B0D013E84000A128A11AA223E
:100158000A128A11BC000A128A11AA220A128A11EA
:10016800BD000A128A11AA220A128A11BE000A12B6
:100178008A11AA220A128A11BF003F084702031DEA
:10018800CF283E084602031DCF283D084502031D1F
:10019800CF283C084402031CD9280130FF007F08FF
:1001A800C9070A304906031D9D2843080339031966
:1001B800E528480884002D3080000130FF007F08C2
:1001C800C8074908BB00BC013B08C0003C08C10087
:1001D800FF30C0070318C10AFF30C107400A0319DE
:1001E800410A03192F280030B1000030B000003058
:1001F800AF000A30AE004008BB0001300310BB0D51
:10020800FF3E031D022903103B0D013E84000A1224
:100218008A11AA220A128A11A0000A128A11AA2295
:100228000A128A11A1000A128A11AA220A128A1134
:10023800A2000A128A11AA220A128A11A3004708E8
:10024800A7004608A6004508A5004408A4000A120D
:100258008A11C8210A128A112308B5002208B4009D
:100268002108B3002008B2000A128A1126220A12B5
:100278008A112E08303EC9004808840049088000C9
:100288000130FF007F08C807EC2848088400800177
:100298000800703083168F040A128A11A4230A12E8
:1002A8008A110A128A11E0220A128A110A128A1184
:1002B80068230A128A110A128A1178230A128A11EB
:1002C80083129F14283083126302031C6629831645
:1002D8000C138312CB01CC01293083120313A00025
:1002E8004F300A128A1125230A128A112D30B800BC
:1002F8004B08CA004A07A03E84000008B900840AD7
:100308000008BA004F300A128A112C200A128A11EA
:100318003B30E2004F300A128A1104230A128A1174
:100328000130CB070318CC0A0030CC074C08803AC0
:10033800FF0080307F02031DA32929304B02031CD4
:100348007029293083120313A0004F300A128A1132
:1003580025230A128A112D30B8004E08BA004D081C
:10036800B9004F300A128A112C200A128A113B3028
:10037800E2004F300A128A1104230A128A11E3019B
:100388009F1483160C1766290030AC000030AB00B0
:100398000030AA000030A900230822042104200408
:1003A80003191D2AAD01AD0AA31BE8290130A800D5
:1003B8000310A00DA10DA20DA30DA80BDC2901307F
:1003C800FF007F08AD07D8290130A8000310A90D48
:1003D800AA0DAB0DAC0DA80BEA2923082702031DB3
:1003E800FF2922082602031DFF2921082502031DD3
:1003F800FF2920082402031C102A2008A40221082F
:10040800031C210FA5022208031C220FA6022308A1
:10041800031C230FA702291401300310A30CA20CFC
:10042800A10CA00CFF3E031D112A0130AD02031DD3
:10043800E8292C08A3002B08A2002A08A1002908F3
:10044800A0000800310830042F042E040319692A7B
:10045800B701B70AB11B3E2A0130B6000310AE0D32
:10046800AF0DB00DB10DB60B322A0130FF007F0879
:10047800B7072E2A31083502031D4C2A30083402EA
:10048800031D4C2A2F083302031D4C2A2E08320262
:10049800031C5C2A2E08B2022F08031C2F0FB3027C
:1004A8003008031C300FB4023108031C310FB502A9
:1004B80001300310B10CB00CAF0CAE0CFF3E031DA5
:1004C8005D2A0130B702031D3E2A3508B100340801
:1004D800B0003308AF003208AE00080083120313DF
:1004E8000C1383161E08F000F10183121E08F20097
:1004F800F3017208F300F20100307205F4000330D2
:100508007305F50070087404F60071087504F700A7
:100518006308F8007807A03E8400760883138000FB
:10052800840A770880000130FF007F08E30728303D
:100538006302031C9F147C08FF007B088A007A086A
:100548008400790E8300FE0E7E0E090002308A00B8
:100558000408840A8207003401340034003400346B
:100568000A34003400340034643400340034003475
:10057800E8340334003400341034273400340034B1
:10058800A034863401340034403442340F3400340B
:1005980080349634983400340034E134F53405342A
:1005A8000034CA349A343B342034203420340034A4
:1005B80025346C3464340034031305140317081409
:1005C80000300A128A1186230A128A111F083F393D
:1005D80080389F0083169F179F121F1283121F14C3
:1005E800023083120313A4000430A300B930A20020
:1005F800A20BFC2AA30BFC2AA40BFC2A032B080041
:10060800A200220884000008A10021080A128A1109
:1006180093230A128A110130FF007F08A2072208DB
:1006280084003B3083130006031D052B0D300A128E
:100638008A1193230A128A110A300A128A11932303
:100648000800A2002208A100200884000A128A11CA
:10065800AA220A128A11FF00210884007F08831346
:1006680080000008031908000130FF007F08A10777
:100678000130FF007F08A007282BE734033420341B
:1006880000340034003400340034003400340034C2
:1006980000340034003400340034003400340034B2
:1006A8000034003400347E088A007F088200572313
:1006B8000A128A118000840A04087D06031900348E
:1006C800FF0A0319FE0A5B2B831603130713871708
:1006D8001811031787153330031399001812831262
:1006E80098179030980008009010CF30900510119E
:1006F800FF308F00E7308E000C1383160C170B1792
:100708008B17080083120313A1002108A000A00D75
:10071800A00D1F082006C33920069F000800A0006E
:100728008316981683120C1E962B20089900080031
:1007380064008001840A04060319003404069D2B12
:0C0748008801890103178801890108005D
:04400E00D420FF3F7C
:00000001FF
